{
  "contractName": "ExamScheduler",
  "abi": [
    {
      "anonymous": false,
      "inputs": [
        {
          "indexed": true,
          "internalType": "uint256",
          "name": "id",
          "type": "uint256"
        },
        {
          "indexed": false,
          "internalType": "string",
          "name": "course",
          "type": "string"
        },
        {
          "indexed": false,
          "internalType": "string",
          "name": "branch",
          "type": "string"
        },
        {
          "indexed": false,
          "internalType": "string",
          "name": "subject",
          "type": "string"
        }
      ],
      "name": "ExamScheduled",
      "type": "event"
    },
    {
      "inputs": [],
      "name": "examCount",
      "outputs": [
        {
          "internalType": "uint256",
          "name": "",
          "type": "uint256"
        }
      ],
      "stateMutability": "view",
      "type": "function"
    },
    {
      "inputs": [
        {
          "internalType": "uint256",
          "name": "",
          "type": "uint256"
        }
      ],
      "name": "exams",
      "outputs": [
        {
          "internalType": "uint256",
          "name": "id",
          "type": "uint256"
        },
        {
          "internalType": "string",
          "name": "course",
          "type": "string"
        },
        {
          "internalType": "string",
          "name": "branch",
          "type": "string"
        },
        {
          "internalType": "string",
          "name": "subject",
          "type": "string"
        },
        {
          "internalType": "string",
          "name": "date",
          "type": "string"
        },
        {
          "internalType": "uint256",
          "name": "time",
          "type": "uint256"
        },
        {
          "internalType": "uint256",
          "name": "duration",
          "type": "uint256"
        },
        {
          "internalType": "string",
          "name": "examType",
          "type": "string"
        },
        {
          "internalType": "string",
          "name": "semester",
          "type": "string"
        }
      ],
      "stateMutability": "view",
      "type": "function"
    },
    {
      "inputs": [
        {
          "internalType": "string",
          "name": "_course",
          "type": "string"
        },
        {
          "internalType": "string",
          "name": "_branch",
          "type": "string"
        },
        {
          "internalType": "string",
          "name": "_subject",
          "type": "string"
        },
        {
          "internalType": "string",
          "name": "_date",
          "type": "string"
        },
        {
          "internalType": "uint256",
          "name": "_time",
          "type": "uint256"
        },
        {
          "internalType": "uint256",
          "name": "_duration",
          "type": "uint256"
        },
        {
          "internalType": "string",
          "name": "_examType",
          "type": "string"
        },
        {
          "internalType": "string",
          "name": "_semester",
          "type": "string"
        }
      ],
      "name": "scheduleExam",
      "outputs": [],
      "stateMutability": "nonpayable",
      "type": "function"
    },
    {
      "inputs": [
        {
          "internalType": "string",
          "name": "_course",
          "type": "string"
        },
        {
          "internalType": "string",
          "name": "_branch",
          "type": "string"
        },
        {
          "internalType": "string",
          "name": "_semester",
          "type": "string"
        },
        {
          "internalType": "string",
          "name": "_date",
          "type": "string"
        }
      ],
      "name": "isExamScheduled",
      "outputs": [
        {
          "internalType": "bool",
          "name": "",
          "type": "bool"
        }
      ],
      "stateMutability": "view",
      "type": "function"
    },
    {
      "inputs": [],
      "name": "getAllScheduledExams",
      "outputs": [
        {
          "internalType": "uint256[]",
          "name": "",
          "type": "uint256[]"
        }
      ],
      "stateMutability": "view",
      "type": "function"
    }
  ],
  "bytecode": "0x608060405234801561001057600080fd5b506113fd806100206000396000f3fe608060405234801561001057600080fd5b50600436106100575760003560e01c80630dfb1dbf1461005c5780634198cb3f1461007a5780635350f303146100b25780635a0103fe146100d0578063e9c4c75f14610100575b600080fd5b61006461011c565b60405161007191906108bb565b60405180910390f35b610094600480360381019061008f9190610916565b610122565b6040516100a9999897969594939291906109d3565b60405180910390f35b6100ba6104a0565b6040516100c79190610b48565b60405180910390f35b6100ea60048036038101906100e59190610c9f565b610561565b6040516100f79190610d91565b60405180910390f35b61011a60048036038101906101159190610dac565b610746565b005b60015481565b600060205280600052604060002060009150905080600001549080600101805461014b90610f39565b80601f016020809104026020016040519081016040528092919081815260200182805461017790610f39565b80156101c45780601f10610199576101008083540402835291602001916101c4565b820191906000526020600020905b8154815290600101906020018083116101a757829003601f168201915b5050505050908060020180546101d990610f39565b80601f016020809104026020016040519081016040528092919081815260200182805461020590610f39565b80156102525780601f1061022757610100808354040283529160200191610252565b820191906000526020600020905b81548152906001019060200180831161023557829003601f168201915b50505050509080600301805461026790610f39565b80601f016020809104026020016040519081016040528092919081815260200182805461029390610f39565b80156102e05780601f106102b5576101008083540402835291602001916102e0565b820191906000526020600020905b8154815290600101906020018083116102c357829003601f168201915b5050505050908060040180546102f590610f39565b80601f016020809104026020016040519081016040528092919081815260200182805461032190610f39565b801561036e5780601f106103435761010080835404028352916020019161036e565b820191906000526020600020905b81548152906001019060200180831161035157829003601f168201915b50505050509080600501549080600601549080600701805461038f90610f39565b80601f01602080910402602001604051908101604052809291908181526020018280546103bb90610f39565b80156104085780601f106103dd57610100808354040283529160200191610408565b820191906000526020600020905b8154815290600101906020018083116103eb57829003601f168201915b50505050509080600801805461041d90610f39565b80601f016020809104026020016040519081016040528092919081815260200182805461044990610f39565b80156104965780601f1061046b57610100808354040283529160200191610496565b820191906000526020600020905b81548152906001019060200180831161047957829003601f168201915b5050505050905089565b6060600060015467ffffffffffffffff8111156104c0576104bf610b74565b5b6040519080825280602002602001820160405280156104ee5781602001602082028036833780820191505090505b509050600080600190505b6001548111610558576000808281526020019081526020016000206000015483838151811061052b5761052a610f6a565b5b602002602001018181525050818061054290610fc8565b925050808061055090610fc8565b9150506104f9565b50819250505090565b600080600190505b60015481116107385785604051602001610583919061104c565b604051602081830303815290604052805190602001206000808381526020019081526020016000206001016040516020016105be91906110fb565b604051602081830303815290604052805190602001201480156106405750846040516020016105ed919061104c565b6040516020818303038152906040528051906020012060008083815260200190815260200160002060020160405160200161062891906110fb565b60405160208183030381529060405280519060200120145b80156106ab575083604051602001610658919061104c565b6040516020818303038152906040528051906020012060008083815260200190815260200160002060080160405160200161069391906110fb565b60405160208183030381529060405280519060200120145b80156107165750826040516020016106c3919061104c565b604051602081830303815290604052805190602001206000808381526020019081526020016000206004016040516020016106fe91906110fb565b60405160208183030381529060405280519060200120145b1561072557600191505061073e565b808061073090610fc8565b915050610569565b50600090505b949350505050565b6001600081548092919061075990610fc8565b919050555060405180610120016040528060015481526020018981526020018881526020018781526020018681526020018581526020018481526020018381526020018281525060008060015481526020019081526020016000206000820151816000015560208201518160010190816107d391906112a9565b5060408201518160020190816107e991906112a9565b5060608201518160030190816107ff91906112a9565b50608082015181600401908161081591906112a9565b5060a0820151816005015560c0820151816006015560e082015181600701908161083f91906112a9565b5061010082015181600801908161085691906112a9565b509050506001547f3ea7b31361d6aed658cbc4cced7fbd00e87249b96f2bfc3351f05bbea5e3c66d8989896040516108909392919061137b565b60405180910390a25050505050505050565b6000819050919050565b6108b5816108a2565b82525050565b60006020820190506108d060008301846108ac565b92915050565b6000604051905090565b600080fd5b600080fd5b6108f3816108a2565b81146108fe57600080fd5b50565b600081359050610910816108ea565b92915050565b60006020828403121561092c5761092b6108e0565b5b600061093a84828501610901565b91505092915050565b600081519050919050565b600082825260208201905092915050565b60005b8381101561097d578082015181840152602081019050610962565b60008484015250505050565b6000601f19601f8301169050919050565b60006109a582610943565b6109af818561094e565b93506109bf81856020860161095f565b6109c881610989565b840191505092915050565b6000610120820190506109e9600083018c6108ac565b81810360208301526109fb818b61099a565b90508181036040830152610a0f818a61099a565b90508181036060830152610a23818961099a565b90508181036080830152610a37818861099a565b9050610a4660a08301876108ac565b610a5360c08301866108ac565b81810360e0830152610a65818561099a565b9050818103610100830152610a7a818461099a565b90509a9950505050505050505050565b600081519050919050565b600082825260208201905092915050565b6000819050602082019050919050565b610abf816108a2565b82525050565b6000610ad18383610ab6565b60208301905092915050565b6000602082019050919050565b6000610af582610a8a565b610aff8185610a95565b9350610b0a83610aa6565b8060005b83811015610b3b578151610b228882610ac5565b9750610b2d83610add565b925050600181019050610b0e565b5085935050505092915050565b60006020820190508181036000830152610b628184610aea565b905092915050565b600080fd5b600080fd5b7f4e487b7100000000000000000000000000000000000000000000000000000000600052604160045260246000fd5b610bac82610989565b810181811067ffffffffffffffff82111715610bcb57610bca610b74565b5b80604052505050565b6000610bde6108d6565b9050610bea8282610ba3565b919050565b600067ffffffffffffffff821115610c0a57610c09610b74565b5b610c1382610989565b9050602081019050919050565b82818337600083830152505050565b6000610c42610c3d84610bef565b610bd4565b905082815260208101848484011115610c5e57610c5d610b6f565b5b610c69848285610c20565b509392505050565b600082601f830112610c8657610c85610b6a565b5b8135610c96848260208601610c2f565b91505092915050565b60008060008060808587031215610cb957610cb86108e0565b5b600085013567ffffffffffffffff811115610cd757610cd66108e5565b5b610ce387828801610c71565b945050602085013567ffffffffffffffff811115610d0457610d036108e5565b5b610d1087828801610c71565b935050604085013567ffffffffffffffff811115610d3157610d306108e5565b5b610d3d87828801610c71565b925050606085013567ffffffffffffffff811115610d5e57610d5d6108e5565b5b610d6a87828801610c71565b91505092959194509250565b60008115159050919050565b610d8b81610d76565b82525050565b6000602082019050610da66000830184610d82565b92915050565b600080600080600080600080610100898b031215610dcd57610dcc6108e0565b5b600089013567ffffffffffffffff811115610deb57610dea6108e5565b5b610df78b828c01610c71565b985050602089013567ffffffffffffffff811115610e1857610e176108e5565b5b610e248b828c01610c71565b975050604089013567ffffffffffffffff811115610e4557610e446108e5565b5b610e518b828c01610c71565b965050606089013567ffffffffffffffff811115610e7257610e716108e5565b5b610e7e8b828c01610c71565b9550506080610e8f8b828c01610901565b94505060a0610ea08b828c01610901565b93505060c089013567ffffffffffffffff811115610ec157610ec06108e5565b5b610ecd8b828c01610c71565b92505060e089013567ffffffffffffffff811115610eee57610eed6108e5565b5b610efa8b828c01610c71565b9150509295985092959890939650565b7f4e487b7100000000000000000000000000000000000000000000000000000000600052602260045260246000fd5b60006002820490506001821680610f5157607f821691505b602082108103610f6457610f63610f0a565b5b50919050565b7f4e487b7100000000000000000000000000000000000000000000000000000000600052603260045260246000fd5b7f4e487b7100000000000000000000000000000000000000000000000000000000600052601160045260246000fd5b6000610fd3826108a2565b91507fffffffffffffffffffffffffffffffffffffffffffffffffffffffffffffffff820361100557611004610f99565b5b600182019050919050565b600081905092915050565b600061102682610943565b6110308185611010565b935061104081856020860161095f565b80840191505092915050565b6000611058828461101b565b915081905092915050565b60008190508160005260206000209050919050565b6000815461108581610f39565b61108f8186611010565b945060018216600081146110aa57600181146110bf576110f2565b60ff19831686528115158202860193506110f2565b6110c885611063565b60005b838110156110ea578154818901526001820191506020810190506110cb565b838801955050505b50505092915050565b60006111078284611078565b915081905092915050565b60006020601f8301049050919050565b600082821b905092915050565b60006008830261115f7fffffffffffffffffffffffffffffffffffffffffffffffffffffffffffffffff82611122565b6111698683611122565b95508019841693508086168417925050509392505050565b6000819050919050565b60006111a66111a161119c846108a2565b611181565b6108a2565b9050919050565b6000819050919050565b6111c08361118b565b6111d46111cc826111ad565b84845461112f565b825550505050565b600090565b6111e96111dc565b6111f48184846111b7565b505050565b5b818110156112185761120d6000826111e1565b6001810190506111fa565b5050565b601f82111561125d5761122e81611063565b61123784611112565b81016020851015611246578190505b61125a61125285611112565b8301826111f9565b50505b505050565b600082821c905092915050565b600061128060001984600802611262565b1980831691505092915050565b6000611299838361126f565b9150826002028217905092915050565b6112b282610943565b67ffffffffffffffff8111156112cb576112ca610b74565b5b6112d58254610f39565b6112e082828561121c565b600060209050601f8311600181146113135760008415611301578287015190505b61130b858261128d565b865550611373565b601f19841661132186611063565b60005b8281101561134957848901518255600182019150602085019450602081019050611324565b868310156113665784890151611362601f89168261126f565b8355505b6001600288020188555050505b505050505050565b60006060820190508181036000830152611395818661099a565b905081810360208301526113a9818561099a565b905081810360408301526113bd818461099a565b905094935050505056fea2646970667358221220aa499bfdbe46c4dccf28129af243b18d1c7439fe8bee243548029a25c9e644f064736f6c63430008130033",
  "immutableReferences": {},
  "source": "// SPDX-License-Identifier: MIT\r\npragma solidity ^0.8.0;\r\n\r\ncontract ExamScheduler {\r\n    struct Exam {\r\n        uint256 id;\r\n        string course;\r\n        string branch;\r\n        string subject;\r\n        string date; // Change uint256 to string\r\n        uint256 time;\r\n        uint256 duration;\r\n        string examType; // subjective or objective\r\n        string semester; // semester\r\n    }\r\n\r\n    mapping(uint256 => Exam) public exams;\r\n    uint256 public examCount;\r\n\r\n    // Events\r\n    event ExamScheduled(uint256 indexed id, string course, string branch, string subject);\r\n\r\n    // Function to schedule exams\r\n    function scheduleExam(\r\n        string memory _course,\r\n        string memory _branch,\r\n        string memory _subject,\r\n        string memory _date, // Change uint256 to string\r\n        uint256 _time,\r\n        uint256 _duration,\r\n        string memory _examType,\r\n        string memory _semester\r\n    ) external {\r\n        examCount++;\r\n        exams[examCount] = Exam(examCount, _course, _branch, _subject, _date, _time, _duration, _examType, _semester);\r\n        emit ExamScheduled(examCount, _course, _branch, _subject);\r\n    }\r\n\r\n    // Function to check if an exam is scheduled for a particular date with specific course, branch, and semester\r\n    function isExamScheduled(string memory _course, string memory _branch, string memory _semester, string memory _date) external view returns (bool) {\r\n        for (uint256 i = 1; i <= examCount; i++) {\r\n            if (\r\n                keccak256(abi.encodePacked(exams[i].course)) == keccak256(abi.encodePacked(_course)) &&\r\n                keccak256(abi.encodePacked(exams[i].branch)) == keccak256(abi.encodePacked(_branch)) &&\r\n                keccak256(abi.encodePacked(exams[i].semester)) == keccak256(abi.encodePacked(_semester)) &&\r\n                keccak256(abi.encodePacked(exams[i].date)) == keccak256(abi.encodePacked(_date))\r\n            ) {\r\n                return true;\r\n            }\r\n        }\r\n        return false;\r\n    }\r\n\r\n    function getAllScheduledExams() external view returns (uint256[] memory) {\r\n        uint256[] memory scheduledExamsIds = new uint256[](examCount);\r\n        uint256 index = 0;\r\n        for (uint256 i = 1; i <= examCount; i++) {\r\n            scheduledExamsIds[index] = exams[i].id;\r\n            index++;\r\n        }\r\n        return scheduledExamsIds;\r\n    }\r\n}\r\n",
  "sourcePath": "E:\\MERN\\Written-Examination-System-Using-Blockchain-IPFS-and-Machine-Learning\\backend\\contracts\\ExamScheduler.sol",
  "compiler": {
    "name": "solc",
    "version": "0.8.19+commit.7dd6d404.Emscripten.clang"
  },
  "schemaVersion": "3.4.13",
  "updatedAt": "2024-05-22T19:19:05.864Z",
  "devdoc": {
    "kind": "dev",
    "methods": {},
    "version": 1
  },
  "userdoc": {
    "kind": "user",
    "methods": {},
    "version": 1
  }
}