{
  "contractName": "ExamScheduler",
  "abi": [
    {
      "anonymous": false,
      "inputs": [
        {
          "indexed": true,
          "internalType": "uint256",
          "name": "id",
          "type": "uint256"
        },
        {
          "indexed": false,
          "internalType": "string",
          "name": "course",
          "type": "string"
        },
        {
          "indexed": false,
          "internalType": "string",
          "name": "branch",
          "type": "string"
        },
        {
          "indexed": false,
          "internalType": "string",
          "name": "subject",
          "type": "string"
        }
      ],
      "name": "ExamScheduled",
      "type": "event"
    },
    {
      "inputs": [],
      "name": "examCount",
      "outputs": [
        {
          "internalType": "uint256",
          "name": "",
          "type": "uint256"
        }
      ],
      "stateMutability": "view",
      "type": "function"
    },
    {
      "inputs": [
        {
          "internalType": "uint256",
          "name": "",
          "type": "uint256"
        }
      ],
      "name": "exams",
      "outputs": [
        {
          "internalType": "uint256",
          "name": "id",
          "type": "uint256"
        },
        {
          "internalType": "string",
          "name": "course",
          "type": "string"
        },
        {
          "internalType": "string",
          "name": "branch",
          "type": "string"
        },
        {
          "internalType": "string",
          "name": "subject",
          "type": "string"
        },
        {
          "internalType": "uint256",
          "name": "date",
          "type": "uint256"
        },
        {
          "internalType": "uint256",
          "name": "time",
          "type": "uint256"
        },
        {
          "internalType": "uint256",
          "name": "duration",
          "type": "uint256"
        },
        {
          "internalType": "string",
          "name": "examType",
          "type": "string"
        },
        {
          "internalType": "string",
          "name": "semester",
          "type": "string"
        }
      ],
      "stateMutability": "view",
      "type": "function"
    },
    {
      "inputs": [
        {
          "internalType": "string",
          "name": "_course",
          "type": "string"
        },
        {
          "internalType": "string",
          "name": "_branch",
          "type": "string"
        },
        {
          "internalType": "string",
          "name": "_subject",
          "type": "string"
        },
        {
          "internalType": "uint256",
          "name": "_date",
          "type": "uint256"
        },
        {
          "internalType": "uint256",
          "name": "_time",
          "type": "uint256"
        },
        {
          "internalType": "uint256",
          "name": "_duration",
          "type": "uint256"
        },
        {
          "internalType": "string",
          "name": "_examType",
          "type": "string"
        },
        {
          "internalType": "string",
          "name": "_semester",
          "type": "string"
        }
      ],
      "name": "scheduleExam",
      "outputs": [],
      "stateMutability": "nonpayable",
      "type": "function"
    },
    {
      "inputs": [
        {
          "internalType": "string",
          "name": "_course",
          "type": "string"
        },
        {
          "internalType": "string",
          "name": "_branch",
          "type": "string"
        },
        {
          "internalType": "string",
          "name": "_semester",
          "type": "string"
        },
        {
          "internalType": "uint256",
          "name": "_date",
          "type": "uint256"
        }
      ],
      "name": "isExamScheduled",
      "outputs": [
        {
          "internalType": "bool",
          "name": "",
          "type": "bool"
        }
      ],
      "stateMutability": "view",
      "type": "function"
    }
  ],
  "bytecode": "0x608060405234801561001057600080fd5b506110e6806100206000396000f3fe608060405234801561001057600080fd5b506004361061004c5760003560e01c80630dfb1dbf146100515780634198cb3f1461006f57806383b0b372146100a7578063ace817f2146100c3575b600080fd5b6100596100f3565b60405161006691906106f2565b60405180910390f35b6100896004803603810190610084919061074d565b6100f9565b60405161009e9998979695949392919061080a565b60405180910390f35b6100c160048036038101906100bc91906109ef565b6103ef565b005b6100dd60048036038101906100d89190610b31565b61053f565b6040516100ea9190610c07565b60405180910390f35b60015481565b600060205280600052604060002060009150905080600001549080600101805461012290610c51565b80601f016020809104026020016040519081016040528092919081815260200182805461014e90610c51565b801561019b5780601f106101705761010080835404028352916020019161019b565b820191906000526020600020905b81548152906001019060200180831161017e57829003601f168201915b5050505050908060020180546101b090610c51565b80601f01602080910402602001604051908101604052809291908181526020018280546101dc90610c51565b80156102295780601f106101fe57610100808354040283529160200191610229565b820191906000526020600020905b81548152906001019060200180831161020c57829003601f168201915b50505050509080600301805461023e90610c51565b80601f016020809104026020016040519081016040528092919081815260200182805461026a90610c51565b80156102b75780601f1061028c576101008083540402835291602001916102b7565b820191906000526020600020905b81548152906001019060200180831161029a57829003601f168201915b5050505050908060040154908060050154908060060154908060070180546102de90610c51565b80601f016020809104026020016040519081016040528092919081815260200182805461030a90610c51565b80156103575780601f1061032c57610100808354040283529160200191610357565b820191906000526020600020905b81548152906001019060200180831161033a57829003601f168201915b50505050509080600801805461036c90610c51565b80601f016020809104026020016040519081016040528092919081815260200182805461039890610c51565b80156103e55780601f106103ba576101008083540402835291602001916103e5565b820191906000526020600020905b8154815290600101906020018083116103c857829003601f168201915b5050505050905089565b6001600081548092919061040290610cb1565b9190505550604051806101200160405280600154815260200189815260200188815260200187815260200186815260200185815260200184815260200183815260200182815250600080600154815260200190815260200160002060008201518160000155602082015181600101908161047c9190610ea5565b5060408201518160020190816104929190610ea5565b5060608201518160030190816104a89190610ea5565b506080820151816004015560a0820151816005015560c0820151816006015560e08201518160070190816104dc9190610ea5565b506101008201518160080190816104f39190610ea5565b509050506001547f3ea7b31361d6aed658cbc4cced7fbd00e87249b96f2bfc3351f05bbea5e3c66d89898960405161052d93929190610f77565b60405180910390a25050505050505050565b600080600190505b60015481116106cb57856040516020016105619190610fff565b6040516020818303038152906040528051906020012060008083815260200190815260200160002060010160405160200161059c9190611099565b6040516020818303038152906040528051906020012014801561061e5750846040516020016105cb9190610fff565b604051602081830303815290604052805190602001206000808381526020019081526020016000206002016040516020016106069190611099565b60405160208183030381529060405280519060200120145b80156106895750836040516020016106369190610fff565b604051602081830303815290604052805190602001206000808381526020019081526020016000206008016040516020016106719190611099565b60405160208183030381529060405280519060200120145b80156106a957508260008083815260200190815260200160002060040154145b156106b85760019150506106d1565b80806106c390610cb1565b915050610547565b50600090505b949350505050565b6000819050919050565b6106ec816106d9565b82525050565b600060208201905061070760008301846106e3565b92915050565b6000604051905090565b600080fd5b600080fd5b61072a816106d9565b811461073557600080fd5b50565b60008135905061074781610721565b92915050565b60006020828403121561076357610762610717565b5b600061077184828501610738565b91505092915050565b600081519050919050565b600082825260208201905092915050565b60005b838110156107b4578082015181840152602081019050610799565b60008484015250505050565b6000601f19601f8301169050919050565b60006107dc8261077a565b6107e68185610785565b93506107f6818560208601610796565b6107ff816107c0565b840191505092915050565b600061012082019050610820600083018c6106e3565b8181036020830152610832818b6107d1565b90508181036040830152610846818a6107d1565b9050818103606083015261085a81896107d1565b905061086960808301886106e3565b61087660a08301876106e3565b61088360c08301866106e3565b81810360e083015261089581856107d1565b90508181036101008301526108aa81846107d1565b90509a9950505050505050505050565b600080fd5b600080fd5b7f4e487b7100000000000000000000000000000000000000000000000000000000600052604160045260246000fd5b6108fc826107c0565b810181811067ffffffffffffffff8211171561091b5761091a6108c4565b5b80604052505050565b600061092e61070d565b905061093a82826108f3565b919050565b600067ffffffffffffffff82111561095a576109596108c4565b5b610963826107c0565b9050602081019050919050565b82818337600083830152505050565b600061099261098d8461093f565b610924565b9050828152602081018484840111156109ae576109ad6108bf565b5b6109b9848285610970565b509392505050565b600082601f8301126109d6576109d56108ba565b5b81356109e684826020860161097f565b91505092915050565b600080600080600080600080610100898b031215610a1057610a0f610717565b5b600089013567ffffffffffffffff811115610a2e57610a2d61071c565b5b610a3a8b828c016109c1565b985050602089013567ffffffffffffffff811115610a5b57610a5a61071c565b5b610a678b828c016109c1565b975050604089013567ffffffffffffffff811115610a8857610a8761071c565b5b610a948b828c016109c1565b9650506060610aa58b828c01610738565b9550506080610ab68b828c01610738565b94505060a0610ac78b828c01610738565b93505060c089013567ffffffffffffffff811115610ae857610ae761071c565b5b610af48b828c016109c1565b92505060e089013567ffffffffffffffff811115610b1557610b1461071c565b5b610b218b828c016109c1565b9150509295985092959890939650565b60008060008060808587031215610b4b57610b4a610717565b5b600085013567ffffffffffffffff811115610b6957610b6861071c565b5b610b75878288016109c1565b945050602085013567ffffffffffffffff811115610b9657610b9561071c565b5b610ba2878288016109c1565b935050604085013567ffffffffffffffff811115610bc357610bc261071c565b5b610bcf878288016109c1565b9250506060610be087828801610738565b91505092959194509250565b60008115159050919050565b610c0181610bec565b82525050565b6000602082019050610c1c6000830184610bf8565b92915050565b7f4e487b7100000000000000000000000000000000000000000000000000000000600052602260045260246000fd5b60006002820490506001821680610c6957607f821691505b602082108103610c7c57610c7b610c22565b5b50919050565b7f4e487b7100000000000000000000000000000000000000000000000000000000600052601160045260246000fd5b6000610cbc826106d9565b91507fffffffffffffffffffffffffffffffffffffffffffffffffffffffffffffffff8203610cee57610ced610c82565b5b600182019050919050565b60008190508160005260206000209050919050565b60006020601f8301049050919050565b600082821b905092915050565b600060088302610d5b7fffffffffffffffffffffffffffffffffffffffffffffffffffffffffffffffff82610d1e565b610d658683610d1e565b95508019841693508086168417925050509392505050565b6000819050919050565b6000610da2610d9d610d98846106d9565b610d7d565b6106d9565b9050919050565b6000819050919050565b610dbc83610d87565b610dd0610dc882610da9565b848454610d2b565b825550505050565b600090565b610de5610dd8565b610df0818484610db3565b505050565b5b81811015610e1457610e09600082610ddd565b600181019050610df6565b5050565b601f821115610e5957610e2a81610cf9565b610e3384610d0e565b81016020851015610e42578190505b610e56610e4e85610d0e565b830182610df5565b50505b505050565b600082821c905092915050565b6000610e7c60001984600802610e5e565b1980831691505092915050565b6000610e958383610e6b565b9150826002028217905092915050565b610eae8261077a565b67ffffffffffffffff811115610ec757610ec66108c4565b5b610ed18254610c51565b610edc828285610e18565b600060209050601f831160018114610f0f5760008415610efd578287015190505b610f078582610e89565b865550610f6f565b601f198416610f1d86610cf9565b60005b82811015610f4557848901518255600182019150602085019450602081019050610f20565b86831015610f625784890151610f5e601f891682610e6b565b8355505b6001600288020188555050505b505050505050565b60006060820190508181036000830152610f9181866107d1565b90508181036020830152610fa581856107d1565b90508181036040830152610fb981846107d1565b9050949350505050565b600081905092915050565b6000610fd98261077a565b610fe38185610fc3565b9350610ff3818560208601610796565b80840191505092915050565b600061100b8284610fce565b915081905092915050565b6000815461102381610c51565b61102d8186610fc3565b94506001821660008114611048576001811461105d57611090565b60ff1983168652811515820286019350611090565b61106685610cf9565b60005b8381101561108857815481890152600182019150602081019050611069565b838801955050505b50505092915050565b60006110a58284611016565b91508190509291505056fea2646970667358221220f4a3a6510e7f187732f7e3abaa4aa2b57ea50898c42adeeec75740c1d64a9de664736f6c63430008130033",
  "immutableReferences": {},
  "source": "// SPDX-License-Identifier: MIT\r\npragma solidity ^0.8.0;\r\n\r\ncontract ExamScheduler {\r\n    struct Exam {\r\n        uint256 id;\r\n        string course;\r\n        string branch;\r\n        string subject;\r\n        uint256 date;\r\n        uint256 time;\r\n        uint256 duration;\r\n        string examType; // subjective or objective\r\n        string semester; // semester\r\n    }\r\n\r\n    mapping(uint256 => Exam) public exams;\r\n    uint256 public examCount;\r\n\r\n    // Events\r\n    event ExamScheduled(uint256 indexed id, string course, string branch, string subject);\r\n\r\n    // Function to schedule exams\r\n    function scheduleExam(\r\n        string memory _course,\r\n        string memory _branch,\r\n        string memory _subject,\r\n        uint256 _date,\r\n        uint256 _time,\r\n        uint256 _duration,\r\n        string memory _examType,\r\n        string memory _semester // added semester parameter\r\n    ) external {\r\n        examCount++;\r\n        exams[examCount] = Exam(examCount, _course, _branch, _subject, _date, _time, _duration, _examType, _semester);\r\n        emit ExamScheduled(examCount, _course, _branch, _subject);\r\n    }\r\n\r\n    // Function to check if an exam is scheduled for a particular date with specific course, branch, and semester\r\n    function isExamScheduled(string memory _course, string memory _branch, string memory _semester, uint256 _date) external view returns (bool) {\r\n        for (uint256 i = 1; i <= examCount; i++) {\r\n            if (\r\n                keccak256(abi.encodePacked(exams[i].course)) == keccak256(abi.encodePacked(_course)) &&\r\n                keccak256(abi.encodePacked(exams[i].branch)) == keccak256(abi.encodePacked(_branch)) &&\r\n                keccak256(abi.encodePacked(exams[i].semester)) == keccak256(abi.encodePacked(_semester)) &&\r\n                exams[i].date == _date\r\n            ) {\r\n                return true;\r\n            }\r\n        }\r\n        return false;\r\n    }\r\n}\r\n",
  "sourcePath": "E:\\MERN\\Written-Examination-System-Using-Blockchain-IPFS-and-Machine-Learning\\backend\\contracts\\ExamScheduler.sol",
  "compiler": {
    "name": "solc",
    "version": "0.8.19+commit.7dd6d404.Emscripten.clang"
  },
  "schemaVersion": "3.4.13",
  "updatedAt": "2024-03-29T11:24:26.752Z",
  "devdoc": {
    "kind": "dev",
    "methods": {},
    "version": 1
  },
  "userdoc": {
    "kind": "user",
    "methods": {},
    "version": 1
  }
}