{
  "contractName": "MyContract",
  "abi": [
    {
      "inputs": [],
      "stateMutability": "nonpayable",
      "type": "constructor"
    },
    {
      "inputs": [],
      "name": "myVar",
      "outputs": [
        {
          "internalType": "uint256",
          "name": "",
          "type": "uint256"
        }
      ],
      "stateMutability": "view",
      "type": "function"
    }
  ],
  "bytecode": "0x608060405234801561001057600080fd5b50606460008190555060b3806100276000396000f3fe6080604052348015600f57600080fd5b506004361060285760003560e01c8063c6b9154014602d575b600080fd5b60336047565b604051603e91906064565b60405180910390f35b60005481565b6000819050919050565b605e81604d565b82525050565b6000602082019050607760008301846057565b9291505056fea2646970667358221220c2a4d28764ac7c7bafa3877188e49a978d42ccc65835b02c97c21babbf26312064736f6c63430008130033",
  "immutableReferences": {},
  "source": "// MyContract.sol\r\n// SPDX-License-Identifier: UNLICENSED\r\npragma solidity ^0.8.0;\r\n\r\ncontract MyContract {\r\n    // Your contract code here\r\n    uint public myVar;\r\n\r\n    constructor() {\r\n        myVar = 100;\r\n    }\r\n}\r\n",
  "sourcePath": "E:\\MERN\\Written-Examination-System-Using-Blockchain-IPFS-and-Machine-Learning\\backend\\contracts\\MyContract.sol",
  "compiler": {
    "name": "solc",
    "version": "0.8.19+commit.7dd6d404.Emscripten.clang"
  },
  "schemaVersion": "3.4.13",
  "updatedAt": "2024-03-29T11:24:26.784Z",
  "devdoc": {
    "kind": "dev",
    "methods": {},
    "version": 1
  },
  "userdoc": {
    "kind": "user",
    "methods": {},
    "version": 1
  }
}